S015000053746174654F664368617267652E737265630F
S1130000C2C00000DDC00000DBC00000D9C0000099
S1130010D7C00000D5C00000D3C00000D1C000008C
S1130020CFC00000CDC00000CBC00000C9C000009C
S1130030C7C00000C5C00000C3C00000C1C00000AC
S1130040BFC00000BDC00000BBC00000B9C00000BC
S1130050B7C00000B5C00000B3C00000B1C00000CC
S1130060AFC00000ADC00000ABC00000A9C00000DC
S1130070A7C00000A5C00000A3C00000A1C00000EC
S11300809FC000009DC000009BC0000000407A108B
S1130090F35A00A0724E18090010A5D4E80000E835
S11300A07648170000E40B54020000CA9A3B000093
S11300B000E1F505000080969800000040420F0022
S11300C00000A08601000000102700000000E803E3
S11300D0000000006400000000000A0000000000AE
S11300E00100000000002C76D888DC674F0823DF6D
S11300F0C1DFAE59E1B1B796E5E3E453C63AE65140
S1130100997696E8E6C28426EB898C9B62ED407C66
S11301106FFCEFBC9C9F40F2BAA56FA5F490055A02
S11301202AF75C936B6CF9676DC11BFCE0E40D4727
S1130130FEF520E6B500D0ED902E0300943577054A
S11301400080841E080000204E0A000000C80C3302
S11301503333330F986E12831141EF8D2114893B91
S1130160E65516CFFEE6DB18D1844B381BF77C1D11
S1130170901DA4BBE424203284725E228100C9F164
S113018024ECA1E53D2711241FBECFEFD0E4DEBF50
S1130190CDBF11E0A0E0B1E0E0EEF0E100E00BBF84
S11301A002C007900D92A633B107D9F721E0A6E368
S11301B0B1E001C01D92AD35B207E1F7D5D28EC7CB
S11301C01FCF181619065CF008950000215031095C
S11301D0E1F74F5F5F4F8417950719F4089540E0E6
S11301E050E027E033E0F1CF5E9888B95F9A0000D1
S11301F05F9882E090E0E5CF089581E0F5CF08951F
S1130200813118F48158F0CF08958155EDCF0895C8
S113021084E690E0D6DF88E3E7DF86E0E5DF8FE081
S1130220E3DF81E0E1DF8AE090E0CBCF08955E9ADE
S113023088B95F9A00005F9881E090E0C2CF08958A
S11302401F93CF93DF93FB019081992351F0EB012E
S113025011E0180FD5DF8991EADF812F9881911180
S1130260F7CFDF91CF911F91089510927C0087E81A
S113027080937A000895ECE7F0E09081987F87708E
S1130280892B8083EAE7F0E0808180648083808129
S113029086FDFDCF80917800909179000895CF92EA
S11302A0DF92EF92FF920F931F9380915A01813056
S11302B041F018F0823049F00CC081E080935A017B
S11302C00EC082E080935A0118C081E080935A01E5
S11302D006C0813021F0823009F03FC20EC015B84B
S11302E084E690E06EDF80E0C6DF90935C0180934B
S11302F05B0184E690E065DF30C281E085B96091FE
S11303005B0170915C0180E090E00BD325E83BEE4B
S113031041EA50E4BCD320E030E040E85AE3B7D3EC
S113032060933E0170933F0180934001909341019B
S113033000E511E022E030E044E050E062D4C090F7
S11303403E01D0903F01E0904001F090410126E64B
S113035036E646E850E4C701B60177D2181614F120
S113036022E430E641E850E4C701B6018CD3181604
S1130370CCF426E636E646E850E4C701B60100D2DE
S113038020911C0130911D0140911E0150911F01CB
S113039060D2609336017093370180933801909353
S11303A039019BC122E430E641E850E4C701B601BB
S11303B04CD218163CF128EF33E54BE750E4C70163
S11303C0B60161D31816F4F422E430E641E850E4AF
S11303D0C701B601D5D1209118013091190140917E
S11303E01A0150911B0135D220E030E040EC5EE36D
S11303F0C8D160933601709337018093380190938C
S113040039016BC128EF33E54BE750E4C701B6016E
S11304101CD218163CF12FE135E843E750E4C7013C
S1130420B60131D31816F4F428EF33E54BE750E462
S1130430C701B601A5D12091140130911501409155
S113044016015091170105D223E830EC4AE25FE32C
S113045098D160933601709337018093380190935B
S113046039013BC12FE135E843E750E4C701B60148
S1130470ECD118163CF12EEA37E441E750E4C70109
S1130480B60101D31816F4F42FE135E843E750E43C
S1130490C701B60175D1209110013091110140912D
S11304A0120150911301D5D12FED3FE44DE85FE3E4
S11304B068D160933601709337018093380190932B
S11304C039010BC12EEA37E441E750E4C701B60114
S11304D0BCD118163CF120E030E040E750E4C701FD
S11304E0B601D1D21816F4F42EEA37E441E750E409
S11304F0C701B60145D120910C0130910D01409105
S11305000E0150910F01A5D120E030E040EA5FE3F5
S113051038D16093360170933701809338019093FA
S11305203901DBC020E030E040E750E4C701B60108
S11305308CD118163CF12BE734E14EE650E4C701A8
S1130540B601A1D21816F4F420E030E040E750E4FC
S1130550C701B60115D120910801309109014091DC
S11305600A0150910B0175D120E030E040EC5FE3CB
S113057008D16093360170933701809338019093CA
S11305803901ABC02BE734E14EE650E4C701B601B4
S11305905CD118163CF12AE037ED4BE650E4C70174
S11305A0B60171D21816F4F42BE734E14EE650E4A8
S11305B0C701B601E5D020910401309105014091B5
S11305C006015091070145D120E030E040EE5FE3A1
S11305D0D8D060933601709337018093380190939B
S11305E039017BC02AE037ED4BE650E4C701B60180
S11305F02CD118163CF121E93DEE4CE550E4C7013D
S1130600B60141D21816F4F42AE037ED4BE650E473
S1130610C701B601B5D0209100013091010140918C
S113062002015091030115D12FED3FE44DEF5FE33B
S1130630A8D060933601709337018093380190936A
S113064039014BC021E93DEE4CE550E4C701B60148
S1130650FCD0181624F120E030E040E450E4C70157
S1130660B60111D28823DCF021E93DEE4CE550E4DB
S1130670C701B60185D023EC35EF46EF51ECE9D044
S11306806DD220EF37EA4EE150E47BD0609336011F
S11306907093370180933801909339011EC020E094
S11306A030E040E450E4C701B601CFD088236CF4B5
S11306B086E696E6A6E2B0E480933601909337018D
S11306C0A0933801B093390108C0109236011092FA
S11306D0370110923801109239012091360130917E
S11306E03701409138015091390166E676E686E299
S11306F090E446D020E030E048EC52E4C8D126E64D
S113070036E646E250E4A5D060933A0170933B018B
S113071080933C0190933D0106E411E021E030E038
S113072044E050E06ED260E271E081E089DD60E592
S113073071E087E085DD67E271E08BE081DD69E2ED
S113074071E081E17DDDB8018AE17ADD63E371E086
S113075080E276DD80E395E734DD1F910F91FF9011
S1130760EF90DF90CF9008958FEF84B915B887B9D3
S113077018B88AB91BB84CDD78DD3FDD90DDFECFBB
S11307805058BB27AA270ED044C135D130F03AD1F6
S113079020F031F49F3F11F41EF42AC10EF4E095C9
S11307A0E7FB20C1E92F46D180F3BA17620773072C
S11307B08407950718F071F49EF55EC10EF4E09578
S11307C00B2EBA2FA02D0B01B90190010C01CA0107
S11307D0A0011124FF27591B99F0593F50F4503EB2
S11307E068F11A16F040A22F232F342F4427585FA4
S11307F0F3CF469537952795A795F0405395C9F7BC
S11308007EF41F16BA0B620B730B840BBAF0915073
S1130810A1F0FF0FBB1F661F771F881FC2F70EC012
S1130820BA0F621F731F841F48F4879577956795E5
S1130830B795F7959E3F08F0B3CF9395880F08F0CE
S11308409927EE0F979587950895A8D008F481E02D
S113085008950CD0DEC0D6D040F0CDD030F021F4D5
S11308605F3F19F0BFC0511108C1C2C0E3D098F373
S11308709923C9F35523B1F3951B550BBB27AA271D
S113088062177307840738F09F5F5F4F220F331F8F
S1130890441FAA1FA9F333D00E2E3AF0E0E830D05B
S11308A091505040E695001CCAF729D0FE2F27D05E
S11308B0660F771F881FBB1F261737074807AB072C
S11308C0B0E809F0BB0B802DBF01FF2793585F4FA1
S11308D02AF09E3F510568F085C0CFC05F3FECF31E
S11308E0983EDCF3869577956795B795F7959F5F66
S11308F0C9F7880F911D9695879597F90895E1E0BA
S1130900660F771F881FBB1F621773078407BA0718
S113091020F0621B730B840BBA0BEE1F88F7E09573
S11309200895E89409C097FB3EF4909580957095DE
S113093061957F4F8F4F9F4F9923A9F0F92F96E927
S1130940BB279395F695879577956795B795F1119C
S1130950F8CFFAF4BB0F11F460FF1BC06F5F7F4F39
S11309608F4F9F4F16C0882311F096E911C077234B
S113097021F09EE8872F762F05C0662371F096E854
S1130980862F70E060E02AF09A95660F771F881F23
S1130990DAF7880F9695879597F90895990F0008C7
S11309A0550FAA0BE0E8FEEF16161706E807F9073D
S11309B0C0F012161306E407F50798F0621B730BD8
S11309C0840B950B39F40A2661F0232B242B252B59
S11309D021F408950A2609F4A140A6958FEF811DFC
S11309E0811D089597F99F6780E870E060E008959D
S11309F09FEF80EC089500240A9416161706180633
S1130A000906089500240A9412161306140605060E
S1130A100895092E0394000C11F4882352F0BB0F9F
S1130A2040F4BF2B11F460FF04C06F5F7F4F8F4F02
S1130A309F4F089557FD9058440F551F59F05F3F3D
S1130A4071F04795880F97FB991F61F09F3F79F0EC
S1130A5087950895121613061406551FF2CF46956E
S1130A60F1DF08C0161617061806991FF1CF8695F0
S1130A707105610508940895E894BB2766277727D4
S1130A80CB0197F908958ADF08F48FEF08950BD00E
S1130A90C0CFB1DF28F0B6DF18F0952309F0A2CF5C
S1130AA0A7CF1124EACFC6DFA0F3959FD1F3950F0A
S1130AB050E0551F629FF001729FBB27F00DB11DDE
S1130AC0639FAA27F00DB11DAA1F649F6627B00D6E
S1130AD0A11D661F829F2227B00DA11D621F739F57
S1130AE0B00DA11D621F839FA00D611D221F749F65
S1130AF03327A00D611D231F849F600D211D822FAC
S1130B00762F6A2F11249F5750408AF0E1F08823F2
S1130B104AF0EE0FFF1FBB1F661F771F881F9150FF
S1130B205040A9F79E3F510570F05CCFA6CF5F3FC0
S1130B30ECF3983EDCF3869577956795B795F79532
S1130B40E7959F5FC1F7FE2B880F911D96958795BA
S1130B5097F9089511F40EF44BCF3EC073DFD0F330
S1130B609923D9F3CEF39F57550B87FF43D0002425
S1130B70A0E640EA900180585695979528F4805C49
S1130B80660F771F881F20F026173707480730F4B1
S1130B90621B730B840B202931294A2BA6951794C9
S1130BA00794202531254A2758F7660F771F881F99
S1130BB020F026173707480730F4620B730B840BB9
S1130BC0200D311D411DA09581F7B901842F915845
S1130BD0880F9695879508959F3F31F0915020F4A2
S1130BE0879577956795B795880F911D9695879505
S1130BF097F9089591505040660F771F881FD2F7D8
S1130C000895EF920F931F93CF93DF93E80147FD6D
S1130C1002C034E001C034E1042E000C550B57FF30
S1130C2003C0519541955109E32E022F242FAE01A3
S1130C3007D0CE01DF91CF911F910F91EF900895CE
S1130C408F929F92AF92BF92CF92DF92EF92FF92D8
S1130C500F931F93CF93DF93CDB7DEB729970FB6CA
S1130C60F894DEBF0FBECDBF6A01122FB02E2BE366
S1130C70201720F0FF24F394F00E02C02CE3F22E90
S1130C800F2D27E0AE014F5F5F4F50D1BC0149816A
S1130C90842F8970813031F0E1FC06C0E0FE06C08B
S1130CA090E205C09DE203C09BE201C090E05E2D8E
S1130CB0507143FF3CC0911102C083E001C084E045
S1130CC0811718F4212F281B01C020E051110BC0FB
S1130CD0F601822F30E2882319F031938150FBCF43
S1130CE0C20ED11C20E0992329F0D6019C93F60171
S1130CF031966F01C6010396E2FE0AC03EE4D601B6
S1130D003C9341E411964C93119712963C9306C080
S1130D103EE6F601308341E641833283FC01322F03
S1130D2040E2332309F442C041933150FACF42FFE9
S1130D3044C0911102C083E001C084E0811718F41B
S1130D40212F281B01C020E051110BC0F601822F76
S1130D5030E2882319F031938150FBCFC20ED11CAD
S1130D6020E0992329F0D6019C93F60131966F0176
S1130D70C6010396E2FE0BC039E4D6013C933EE47F
S1130D8011963C93119736E412963C9307C039E6CA
S1130D90F60130833EE6318336E63283FC01322F9E
S1130DA040E2332319F041933150FBCFFC01E20FB1
S1130DB0F11D10828EEF9FEFA6C021E030E091116B
S1130DC002C020E030E0161617061CF4FB01319631
S1130DD002C0E1E0F0E02E0F3F1FBB2021F0EB2D1D
S1130DE0F0E0319602C0E0E0F0E02E0F3F1FE12F6B
S1130DF0F0E02E173F071CF4121B212F01C020E046
S1130E008E2D887159F4F601822F30E2882319F06F
S1130E1031938150FBCFC20ED11C20E0992329F0DD
S1130E20D6019C93F60131966F0151110BC0F60166
S1130E30822F90E3882319F091938150FBCFC20E47
S1130E40D11C20E00F2D060F9A81342F307144FFFE
S1130E5003C0913309F40150101624F4093018F03A
S1130E6008E001C001E0AB0177FF02C040E050E0C0
S1130E70FB01E41BF50BA1E0B0E0AC0FBD1FEA0FD2
S1130E80FB1F8EE2A82E4B01801A91080B2D10E057
S1130E901195019511094F3FBFEF5B0721F4D6016E
S1130EA0AC9211966D01641775072CF084169506A3
S1130EB014F4818101C080E3415051093196D60177
S1130EC011967D014017510724F0D6018C936701D8
S1130ED0E2CF6417750739F4963320F4953319F487
S1130EE0311101C081E3F6018083F701822F90E282
S1130EF0882319F091938150FBCFF701E20FF11D84
S1130F00108280E090E029960FB6F894DEBF0FBE01
S1130F10CDBFDF91CF911F910F91FF90EF90DF90A4
S1130F20CF90BF90AF909F908F900895283008F095
S1130F3027E03327DA01990F311D87FD9160009670
S1130F406105710539F432602E5F3D9330E32A95D3
S1130F50E1F708959F3F30F080387105610509F08D
S1130F603C5F3C5F3D93913008F08068911DDF93B6
S1130F70CF931F930F93FF92EF92192F987F96951B
S1130F80E92F96959695E90FFF27EA51FF4F992788
S1130F903327EE24FF24A701E70105900894079462
S1130FA028F4360FE71EF81E491F511D660F771FE0
S1130FB0881F991F0694A1F70590079428F4E70E5B
S1130FC0F81E491F561FC11D770F881F991F661FE2
S1130FD00694A1F70590079428F4F80E491F561FAC
S1130FE0C71FD11D880F991F661F771F0694A1F78D
S1130FF00590079420F4490F561FC71FD81F990F57
S1131000661F771F881F0694A9F78491109517709F
S113101041F0D695C79557954795F794E7941A9557
S1131020C1F7ECE8F0E0689415901591359165915D
S1131030959105907FE27395E118F10A430B560BE5
S1131040C90BD009C0F7E10CF11E431F561FC91F7D
S1131050D01D7EF4703311F48A95E6CFE8940150E4
S113106030F0080F0AF40027021708F4202F239504
S1131070022F7A3328F079E37D932A95E9F710C09B
S11310807D932A9589F606949795679537951795D4
S11310901794E118F10A430B560BC90BD00998F0C9
S11310A023957E9173957A3308F070E37C93201333
S11310B0B8F77E9170617D9330F0839571E37D93F1
S11310C070E32A95E1F71124EF90FF900F911F919F
S11310D0CF91DF91992787FD90950895F894FFCFDC
S11310E08D97EEBE3BDF8FBE8FC2F5BD0AD7A3BD81
S11310F08FC275BE17D98EBE9643CBBE2B87D6BE84
S113110042617474563A0056004261747450636EBE
S1091110743A0025000002
S9030000FC
